:020000040800F2
:10000000001800200D3200086D0700086F07000877
:1000100000000000000000000000000000000000E0
:100020000000000000000000000000007107000850
:100030000000000000000000730700088D32000877
:100040008D3200088D3200088D3200088D32000894
:100050008D3200088D3200088D3200088D32000884
:100060008D3200088D3200088D3200088D32000874
:100070008D320008750700088D3200088D320008A7
:100080008D32000800000000000000008D320008E2
:10009000000000008D3200088D3200088D3200080B
:1000A000000000008D3200088D3200088D320008FB
:1000B0008D320008000000008D320008850700081E
:1000C000002934D00123002210B488422CD301240B
:1000D0002407A14204D2814202D209011B01F8E7A0
:1000E000E400A14204D2814202D249005B00F8E759
:1000F000884201D3401A1A434C08A04202D3001B85
:100100005C0822438C08A04202D3001B9C082243B7
:10011000CC08A04202D3001BDC082243002803D0F5
:100120001B0901D00909E3E7101C10BC704701B599
:10013000002000F05FF802BD0029F8D003B5FFF7FA
:10014000C1FF0EBC4243891A1847C046002941D05E
:1001500010B4041C4C40A44601230022002900D501
:100160004942002800D5404288422CD3012424076C
:10017000A14204D2814202D209011B01F8E7E40046
:10018000A14204D2814202D249005B00F8E78842D2
:1001900001D3401A1A434C08A04202D3001B5C084A
:1001A00022438C08A04202D3001B9C082243CC08A7
:1001B000A04202D3001BDC082243002803D01B0905
:1001C00001D00909E3E7101C6446002C00D5404229
:1001D00010BC704701B5002000F00CF802BDC0460D
:1001E0000029F7D003B5FFF7B3FF0EBC4243891ACD
:1001F0001847C0467047C04610B5064C2378002B00
:1002000007D1054B002B02D0044800E000BF0123BA
:10021000237010BD7801002000000000A834000801
:10022000044B10B5002B03D00349044800E000BF85
:1002300010BDC046000000007C010020A83400086A
:1002400030B589B01422002103A803F045F8184BFB
:1002500059698020C002014359615A6902400192E4
:10026000019A5A69802189020A435A615B690B40ED
:100270000293029B802464000E4D0022210028007E
:1002800002F050FA03940123049300240594069489
:1002900003A9280002F076F9062303930494059439
:1002A000902003A9C00502F06DF909B030BDC04629
:1002B000001002400004004810B598B03022002120
:1002C0000CA803F009F81022002107A803F004F895
:1002D0001822002101A802F0FFFF20230B931F3BEF
:1002E00013930BA801F0BEFC07230793043B08936C
:1002F000002409940A94012107A801F07BFF8023C0
:100300009B020193069401A802F06AF818B010BD90
:1003100000B583B001AB00221A700A2159709A709F
:10032000DA7002F0FFF8FFF7C7FFFFF789FF00F070
:1003300029F802F0D9FFC821FFF752FF64396B4654
:10034000597102F0D1FFC821FFF74AFF64396B46AB
:100350009971042201A9034802F043FF642002F0CE
:10036000FFF8E6E7B801002010B50268034B9A4297
:1003700000D010BD02F0E6F8FBE7C046002C0140BB
:100380007047000010B500220D490E4802F03AFAFD
:1003900000280BD10C490B4802F050FA002808D174
:1003A000084802F054FA002806D110BDFFF7E8FF14
:1003B000F0E7FFF7E5FFF3E7FFF7E2FFF5E7C046F9
:1003C00000000020B8010020A0000020022804D076
:1003D00005D8002800D0022070470120FCE7022049
:1003E000FAE710B5FFF768FF10BD000000B583B055
:1003F00002680C4B9A4201D003B000BD0A4AD16991
:10040000802000040143D161D36903400193019B23
:10041000002200211F2002F08BF91F2002F0B8F902
:10042000EAE7C046005C00400010024010B5010041
:1004300087239B00C058ED31FF3102F025FA10BD33
:1004400010B50300872292008058CA00521A920009
:100450009B181933FF331A6802F04AFA10BD10B521
:100460000300872292008058CA00521A92009B18FB
:100470009A6B02F07AFA10BD10B587239B00C05822
:1004800002F00DFB10BD70B504008368022B09D18A
:100490008725AD000121605902F0ECFA605902F0A5
:1004A000C6FA70BDFFF76CFFF2E7000010B504005C
:1004B00087239B00C05802F0E0FAA369002B04D008
:1004C000024A136906210B43136110BD00ED00E0E1
:1004D00010B504008369002B05D187239B00E058E9
:1004E00002F0D6FA10BD044A136906218B4313614A
:1004F000FFF777FFF1E7C04600ED00E070B50400BC
:10050000174887239B00C4500433E050154B036009
:1005100008234360063B8360036100238361C3615A
:10052000036200F091F9002816D18825AD00182348
:1005300000220021605901F055FA58230022802141
:10054000605901F04FFA605980235B00002281213D
:1005500001F048FA002070BDFFF712FFE5E7C04642
:10056000DC030020005C004010B588239B00C058CD
:1005700000F0CAF9FFF72AFF10BD10B514001A00E9
:1005800088239B00C058230000F0E6F9FFF71EFF08
:1005900010BD10B588239B00C05800F067FBFFF723
:1005A00015FF10BD10B588239B00C05800F036FD24
:1005B000FFF70CFF10BD10B588239B00C05800F05A
:1005C00087FDFFF703FF10BD88239B00C3584AB285
:1005D000002A09DB7F221140CA00511A89005B18EA
:1005E0000B33FF33187870477F221140CA00511A2D
:1005F00089005B182A331878F5E710B588239B002B
:10060000C05800F08DF9FFF7E1FE10BD10B5882449
:10061000A400005900F0DAFDFFF7D8FE10BD10B5B8
:100620008824A400005900F0F3FBFFF7CFFE10BDB3
:1006300000487047940100207047000012230B808F
:10064000004870471C00002004230B8000487047BE
:100650003000002030B500230AE05D0037344C55EF
:1006600000015C0001340C19002525700133DBB258
:10067000934206D2040F092CEFD85D0030344C555C
:10068000EEE730BD70B50B4B18680B4B1D680B4B7C
:100690001B68C018002800D170BD094CA11C08229D
:1006A000FFF7D8FF2100123104222800FFF7D2FF04
:1006B000F2E7C046ACF7FF1FB0F7FF1FB4F7FF1F0C
:1006C0003400002010B51A230B80FFF7DBFF014830
:1006D00010BDC0463400002010B50A00002805D126
:1006E0000549064802F08BFC034810BD0249034847
:1006F00002F085FCF8E7C046FC050020C034000885
:1007000010B50A00034C2100034802F078FC2000D9
:1007100010BDC046FC050020D834000810B50A0002
:10072000002805D10549064802F069FC034810BDC0
:100730000249034802F063FCF8E7C046FC050020CC
:10074000E834000810B50A00002805D1054906481C
:1007500002F055FC034810BD0249034802F04FFC6B
:10076000F8E7C046FC050020F43400087047FEE7B7
:100770007047704710B5024801F061F910BDC046DE
:10078000FC07002010B5024801F09EF810BDC046DD
:10079000DC03002082B00C4B99690122114399615E
:1007A00099690A400092009ADA69802149050A4352
:1007B000DA61DB690B400193019B044A1368102145
:1007C0000B43136002B0704700100240000001406C
:1007D00000B587B0010000220D2001F0A9FF0D2017
:1007E00001F0D6FF134A9169802000010143916115
:1007F000936903400093009B01A902A801F0D4FD76
:1008000001F0C2FD0C49FFF75BFC431E0B480C4A8C
:1008100002600C4AC260436000230361836001F000
:1008200005FA002802D0012007B000BD034801F0FE
:10083000F7F8F9E70010024040420F00FC070020E3
:10084000002C0140E703000070B5041E58D0EA23D5
:10085000FF33C35C002B1AD0EA23FF330322E25498
:1008600000226068904219D9D3009B1A9B00E318BC
:10087000190029310120087001390A7018002B3045
:100880000021017059639963D9630132E9E7E933C3
:10089000FF330022C254FFF7A9FDDDE7002214E078
:1008A000D3009B1A9B00E3181D000A35FF35002179
:1008B0002970013D2A7003352970093529600435F6
:1008C00029601D33FF33196001329042E8D840237C
:1008D00001222168CA5200222168CA52442120689C
:1008E00042520C3120684252064A2168CA52002204
:1008F0001C3BE2540122EA23FF33E254002070BD86
:100900000120FCE700BFFFFF016858228B5A034813
:1009100003439BB28B5200207047C0460080FFFF0C
:10092000F4235B00C35C012B13D0F4235B00012292
:10093000C25400290AD19D3BFF3B7F320168CA5255
:10094000F4235B000022C254002070472423C154CA
:10095000F6E70220F9E70000F0B54DB2002D2BDBE1
:100960007F260E40F400A41BA4000934FF340419B0
:100970007F2631402170ED0F6570E260E370F42353
:100980005B00C35C012B00D150E1F4235B0001222A
:10099000C254E378022B00D167E015D8002B1FD09A
:1009A000012B26D1056823789B00EA5AA049114003
:1009B000A04A0A43EA521CE07F260E40F400A41B22
:1009C000A40028340419D3E7032B12D10568237837
:1009D0009B00EA5A96491140974A0A43EA5208E0B6
:1009E000056823789B00EA5A91491140934A0A43CB
:1009F000EA52016823789D004A5B914E32401343CE
:100A0000904A13434B53A37A002B00D07EE06378C7
:100A1000002B34D0A28805685023EB5A2178C900F6
:100A20005B185B198021C9008C46634401218A430D
:100A30001A80026823789B00D118D35A5A0603D52E
:100A40003340814A13430B800168227892008B5A0D
:100A50007E4C2340202463407A4C23438B52F42362
:100A60005B000022C2540020F0BD056823789B0083
:100A7000EA5A6F491140734A0A43EA52B9E7A28819
:100A800005685026AB5B2178C9005B185B1970497B
:100A90008C46634401218A431A8001688B5B22786B
:100AA000D2009B185B186B4A94466344E1683E2968
:100AB00023D94A0992B2C90601D1013A92B29202EF
:100AC00092B265490A431A80026823789B00D118C4
:100AD000D35A5A0404D55A4A1340604A13430B8030
:100AE000056823789B00E95A5D4A1140C0229201B3
:100AF0005140544A0A43EA52B1E74A0892B2C90740
:100B000001D5013292B292021A80DDE7056823789E
:100B10009B00EA5A53491140534A0A43EA52E28879
:100B200005685027EB5B2178C9005B185B198021B1
:100B3000C9008C4663440126B2431A8022890568A5
:100B4000EB5B2178C9005B185B1941498C46634413
:100B5000B2431A806378002B35D1026823789B005A
:100B6000D118D35A5A0404D5354A13403B4A13438B
:100B70000B80026823789B00D118D35A5A0604D5FB
:100B80002F4A1340304A13430B80056823789B009B
:100B9000EA5A2B4911402C4A0A43EA520568217847
:100BA00089006B5A2E4A1A40C0239B015340254AA4
:100BB00013436B52056823789B00E95A234C21406C
:100BC0000A43EA524BE7026823789B00D118D35AB4
:100BD0005A0404D51A4A1340204A13430B80026872
:100BE00023789B00D118D35A5A0604D5144A1340CF
:100BF000154A13430B80056823789B00EA5A104975
:100C00001140164A0A43EA520568217889006B5A56
:100C10000E4A13400B4A13436B52056823789B001E
:100C2000E95A0F4C21400A43EA5218E702201BE719
:100C30000F0900008084FFFF8086FFFF8082FFFF96
:100C40000F0F00008080FFFFC080FFFFBF8FFFFFFE
:100C500004040000060400000080FFFF80C0FFFFC6
:100C60008FBFFFFF0F0E00008081FFFF30B50C002B
:100C70004AB2002A37DB7F212140CB005B1A9B0060
:100C80000933FF33C3187F2121401970D20F5A70E6
:100C9000F4225200825C012A00D1ABE0F42252001F
:100CA000012181549A7A002A3BD15A78002A22D015
:100CB00001681A7892008C188A5A510604D54E4958
:100CC0000A404E490A43228004681B789B00E25A7E
:100CD0004B4911404B4A0A43E252F4235B00002285
:100CE000C254002030BD7F212140CB005B1A9B0005
:100CF0002833C318C7E701681A7892008C188A5AFB
:100D0000510404D53C490A403F490A432280046803
:100D10001B789B00E25A3D4911403A4A0A43E2528D
:100D2000DBE75A78002A32D101681A7892008C18D1
:100D30008A5A510404D530490A4033490A43228073
:100D400001681A7892008C188A5A510604D52A49EB
:100D50000A402A490A43228005681A789200A95A53
:100D6000254C0C4025492143A95205681C78A40054
:100D70002A5B26490A4023490A432A5304681B7800
:100D80009B00E25A1E4D2A401143E152A5E701683B
:100D90001A7892008C188A5A510404D516490A40D0
:100DA00019490A43228001681A7892008C188A5ADD
:100DB000510604D510490A4010490A4322800568AB
:100DC0001A789200A95A0C4C0C400F492143A952A1
:100DD00005681C78A4002A5B09490A4009490A43AE
:100DE0002A5304681B789B00E25A084D2A4011439D
:100DF000E15272E7022075E70F0F0000C080FFFF8D
:100E0000BF8FFFFF8080FFFF80C0FFFF8FBFFFFF0E
:100E100030B57F242140CC00641AA40004192500B9
:100E20001935FF352A6022001D32FF321360083564
:100E300000222A60173D2A7022000932FF32117009
:100E40001534FF342268934241D9CC00641AA400BF
:100E500004191D34FF349B1A2360CB005B1A9B00DE
:100E6000C3181333FF331B78002B43D1046850336E
:100E7000E55ACB005B1A9B00C3180933FF331B787C
:100E8000DB00EB181C19604B9C4664443E2A28D9B1
:100E900053099BB2D20601D1013B9BB29B029BB28C
:100EA0005A4A134323800468CB00591A890040181A
:100EB0000930FF3003789B00E15A554A1140C022A7
:100EC00092015140534A0A43E252002030BDCA0009
:100ED000521A920082181D32FF32002414601A0048
:100EE000BBE753089BB2D20701D501339BB29B02EB
:100EF0002380D8E7CB005B1A9B00C3180A33FF336B
:100F00001B78002B26D104685033E55ACB005B1ABE
:100F10009B00C3180933FF331B78DB00EB181C1947
:100F20003D4B9C4664443E2A0BD953099BB2D506DF
:100F300001D1013B9BB29B029BB2344D2B432380DA
:100F40000AE053089BB2D50701D501339BB29B023F
:100F5000238001E0012B26D0CB005B1A9B00C31835
:100F60000A33FF331B78002B38D104685033E55A1D
:100F7000CB005B1A9B00C3180933FF331B78DB00DF
:100F8000EB181C19204B9C4664443E2A1DD953097A
:100F90009BB2D20601D1013B9BB29B029BB21B4A82
:100FA000134323807FE704684F33E55ACB005B1A75
:100FB0009B00C3180933FF331B78DB00EB181C19A7
:100FC000154B9C4664442280C6E753089BB2D20767
:100FD00001D501339BB29B02238064E7012B00D033
:100FE00061E704684F33E55ACB005B1A9B00C318D6
:100FF0000933FF331B78DB00EB181C19024B9C46AE
:10100000644422804FE7C046060400000080FFFFD2
:101010008FBFFFFF8080FFFF0204000010B50C00AF
:10102000F4235B00C35C012B46D0F4235B00012258
:10103000C2544AB2002A1EDBCB005B1A9B00093364
:10104000FF33C318012199707E3121401970D20FEE
:101050005A70002917D104688900625A174B1A4048
:10106000174B5A40174B13436352F4235B00002283
:10107000C254002010BD7F212140CB005B1A9B0091
:101080002833C318DEE7002A0AD002688900535AC1
:101090000D4C2340102463400A4C23435352E4E791
:1010A00004688900625A094B1A4080235B015A4048
:1010B000044B13436352D8E70220DBE7BFBFFFFFB7
:1010C000101000008080FFFFBF8FFFFF8FBFFFFF6A
:1010D00010B50C004AB2002A35DBCB005B1A9B002E
:1010E0000933FF33C318002199707F3121401970F3
:1010F000D20F5A70F4225200825C012A44D0F422AA
:101100005200012181545A78002A24D001681A78AB
:1011100092008C188A5A510604D51C490A401C4971
:101120000A43228001681A7892008B5A194C234096
:1011300030246340184C23438B52F4235B0000227D
:10114000C254002010BD7F212140CB005B1A9B00C0
:101150002833C318C7E701681A7892008C188A5A96
:10116000510404D509490A400C490A432280046805
:101170001B789B00E15A0A4A1140C022920151405B
:10118000054A0A43E252D8E70220DBE70F0F0000CE
:10119000C080FFFFBF8FFFFF8080FFFF80C0FFFF89
:1011A0008FBFFFFF10B501335B0810188022D200FB
:1011B00094466044002B08D00C784A7812022243EF
:1011C00002800231013B0230F4E710BDF8B50500A2
:1011D0007F240C40E100091B890041188A63CB631E
:1011E00000220A640A00293201201070013A1470AA
:1011F0004F6BBB4233D9DB1BCB63E200121B920067
:10120000AA1832321378002B31D02A68E3001B1B56
:101210009B00EB18283318788300D35A5B0600D460
:1012200084E0E3001B1B9B00EB1829331B78002B89
:101230003ED15033D35AC00018188218604B9C46D8
:1012400062443E2F2BD97B099BB2F90601D1013BA9
:101250009BB29B029BB25B48034313802AE0E200EF
:10126000121B9200AA180021D1631F00C5E7BFB26C
:10127000E600361BB600AE19B28D3B00B16B286894
:10128000FFF790FF2A685023D35A28363178C900D7
:101290005B189B184C4A944663441F802AE07B08E5
:1012A0009BB2F90701D501339BB29B02138001E089
:1012B000012B31D0E3001B1B9B00EB181A8EBBB235
:1012C000E600361BB600AE19B16B2868FFF76AFF5F
:1012D00029363378002B62D12A68E3001B1B9B0060
:1012E000EB1828331B789B00D15A384808403849FE
:1012F0000143D1522868E1000C1BA4002D192835A8
:101300002A789200835A33490B4030214B403249AE
:101310000B4383520020F8BD4F33D35AC000181836
:101320008218274B9C4662441780C3E7E3001B1BCF
:101330009B00EB1829331B78002B1ED15033D35A56
:10134000C00018188218204B9C4662443E2F0BD9CF
:101350007B099BB2F90601D1013B9BB29B029BB278
:101360001848034313800AE07B089BB2F90701D5B4
:1013700001339BB29B02138001E0012B05D0E300F7
:101380001B1B9B00EB18DA8D99E74F33D35AC00033
:10139000181882180C4B9C4662441780EFE7012B0B
:1013A000A8D12A68E3001B1B9B00EB1828331B788D
:1013B0009B00D15A0548084008490143D15299E79A
:1013C000060400000080FFFF020400000F0F000071
:1013D000C080FFFFBF8FFFFF8080FFFF80C0FFFF47
:1013E00010B55C0810188022D20094466044002C8E
:1013F00007D002880A70120A4A70013C023002319A
:10140000F5E7DB0701D503880B7010BDF0B583B09D
:10141000040001AB00221A80B4E10388AA4A1340F9
:10142000038021685023CB5A2822A25CD2009B184B
:101430005B18A64A944663441B889B059B0D236456
:10144000A26B94466344A36300212000FFF707F8D2
:101450002423E35C002B00D194E1E36B002B00D04C
:1014600090E12422A35C802149420B43DBB2CC31C2
:10147000206843520023A35484E15023C35A84229A
:101480005200A25CD2009B181B18914A94466344F8
:101490001B889B059B0D22000932FF3293612100BE
:1014A000ED31FF319288FFF79BFF2268138889494D
:1014B0000B4013802000FEF7B9FF63E1150092880E
:1014C0002969FFF78DFF2B69AA69944663442B6154
:1014D00096E14B089BB2C90701D501339BB29B0231
:1014E0001380AAE1AE008119825B01AB1A801B88D0
:1014F0001BB2002B2EDB01AB1B881B0600D441E185
:101500002268935B70490B409353EB005B1B9B007D
:10151000E31832331B78002B00D0E1E02068503311
:10152000C35AEA00521B9200A21811002831097810
:10153000C9005B181B1865498C4663441B889B05D2
:101540009B0D136400D1F8E01100928D896BFFF7B9
:1015500029FEF2E05F4B1A400A80EB005B1B9B0008
:10156000E3181333FF331B78002B23D1206850334B
:10157000C25AEB005B1B9B00E3180933FF331B7857
:10158000DB00D3181B18524A944663441B889B0502
:101590009F0D002B36D0EB005B1B9B00E3181A005D
:1015A0000D32FF3212881933FF3319683B00FFF701
:1015B00017FF27E02068EB005B1B9B00E318093353
:1015C000FF331B789A00825A520455D55022825A12
:1015D000DB00D3181B183D4A944663441B889B05C7
:1015E0009F0D002B39D12268EB005B1B9B00E31899
:1015F0000933FF331B789B00D15A374808403749DD
:101600000143D1523800E900491B890061180A00E2
:101610002132FF321368DB1913600B001933FF33DB
:101620001A68944667441F601D31FF310B68002B18
:1016300008D0E900491B890061181531FF310A689B
:10164000904235D2EB005B1B9B00E3180933FF335C
:1016500019782000FEF7F4FE4DE7EB005B1B9B00C2
:10166000E3181A000F32FF3212881933FF3319685A
:101670003B00FFF7B5FEB6E75022825ADB00D318D5
:101680001B18134A944663441B889B059F0D002B2F
:10169000A9D0EB005B1B9B00E3181A001132FF324C
:1016A00012881933FF3319683B00FFF799FE9AE758
:1016B000EA00521B9200A2180932FF3211783A0058
:1016C0002000FFF7A5FB16E70F8FFFFF02040000C5
:1016D000060400008F0F00000F0F0000C080FFFF06
:1016E0002068EB005B1B9B00E31828331B789A00F3
:1016F000825A520600D4B1E05022825ADB00D3183D
:101700001B18694A944663441B889B059B0DEA009D
:10171000521B9200A2181364002B00D098E022689C
:10172000EB005B1B9B00E31828331B789B00D15A0E
:101730005E4808405E490143D15221685023CA5A8D
:10174000EB005B1B9B00E318180028300078C000FA
:101750001218521854498C46624412889205920D10
:101760001A64996B8C4662449A63DB6B002B00D041
:101770008DE0EB005B1B9B00E318283319782000F9
:10178000FEF76DFE20684423C35A9BB26A46D3809D
:101790001BB2002B00DB84E06B46DA880F231500B8
:1017A0001D401A4200D09DE66B4606331B88DB06BF
:1017B00000D432E6028801AB1A801B881B0500D5D5
:1017C0005BE601AB1B881BB2002BDBDA0388394ACE
:1017D0001340038020685023C35A84225200A25C25
:1017E000D2009B181B18344A944663441B889B05FF
:1017F0009B0D22000932FF329361002B00D05DE681
:1018000000212000FEF71CFE236850229A5A9A18E5
:10181000294B9C46624423000933FF33D9683E2993
:1018200000D856E64B099BB2C90601D1013B9BB2D9
:101830009B029BB221490B43138021680A88204BED
:101840001A40C0239B015A401E4B13430B8099E75B
:101850001100D28D896BFFF7A5FC60E75022825AF8
:10186000DB00D3181B18144A944663441B889B055D
:101870009B0DEA00521B9200A2181364002B00D1AA
:101880004DE71100128E896BFFF78CFC47E7E900EA
:10189000491B89006118283109782000FFF796FC60
:1018A00070E7002003B0F0BD020400000F0F00003D
:1018B00080C0FFFF8F0F0000060400000080FFFFC4
:1018C0008FBFFFFF8080FFFF70B5040044230268D4
:1018D000D35A1BB2002B46DB236844229A5A520586
:1018E00044D4236844229A5A520404D544215A5AB3
:1018F000344802405A52236844229A5A920404D52A
:1019000044215A5A304802405A52236844229A5A73
:10191000D20438D4236844229A5A120513D544229B
:10192000995A2A480140995220684023C15A0825F3
:101930002943C1522068C15A04252943C152236852
:101940009B5ADB0431D5236844229A5A920530D43D
:10195000236844229A5AD20504D544215A5A1C4875
:1019600002405A5270BDFFF751FDB5E744215A5A63
:10197000184802405A522000FEF785FD0021200041
:10198000FEF7CEFFADE74022995A042081439952D9
:10199000114B21688B522000FEF79AFD21684422EA
:1019A0008B5A0E4803408B52B4E72000FEF77EFDB1
:1019B000C9E744215A5A0A4802405A522000FEF709
:1019C0005BFDC5E7FFBFFFFFFFDFFFFFFFF7FFFF87
:1019D000FFFEFFFFFFFBFFFF00BDFFFFFFEFFFFF6D
:1019E000FFFDFFFF10B50C060CD57F242140CC0075
:1019F000611A890028314018002A0AD18272838036
:101A0000002010BDCC00611A89000931FF31401857
:101A1000F2E701228272C3801B0C0381F0E770475A
:101A20000368DA6801210A43DA60026813680B432D
:101A3000136000207047704770477047704710B5BB
:101A4000040003681A6992070FD5DA6892070CD56B
:101A5000032252421A610123037703689B699B07A3
:101A600063D0FFF7E9FF0023237723681A69520741
:101A700012D5DA6852070FD5052252421A610223A5
:101A8000237723689A69C0239B001A4253D0200011
:101A9000FFF7D2FF0023237723681A69120710D5B6
:101AA000DA6812070DD5092252421A6104232377FE
:101AB0002368DB699B0745D02000FFF7BDFF0023AB
:101AC000237723681A69D20612D5DA68D2060FD5B1
:101AD000112252421A61082323772368DA69C0234E
:101AE0009B001A4235D02000FFF7A6FF0023237782
:101AF00023681A69D20702D5DA68D20730D423687E
:101B00001A69120602D5DA68120630D423681A69F7
:101B1000520602D5DA68520630D423681A69920652
:101B200002D5DA68920630D410BDFFF784FF20009A
:101B3000FFF783FF97E72000FFF77DFF2000FFF707
:101B40007CFFA7E72000FFF776FF2000FFF775FF77
:101B5000B5E72000FFF76FFF2000FFF76EFFC5E736
:101B6000022252421A612000FEF7FEFBC7E78122E3
:101B700052421A61200000F074F8C7E74122524235
:101B80001A612000FFF75AFFC7E7212252421A616B
:101B9000200000F065F8C7E703681E4A904206D0AF
:101BA0008022D205904202D01B4A904203D170227B
:101BB00093434A681343174A90420FD08022D205BC
:101BC00090420BD0144A904208D0144A904205D05B
:101BD000134A904202D0134A904203D1124A134052
:101BE000CA681343802293434A69134303608B6896
:101BF000C3620B688362074B984205D0084B98423A
:101C000002D0084B984201D10B6903630123436161
:101C10007047C046002C01400004004000200040F6
:101C20000044014000480140FFFCFFFF70B5041E66
:101C300014D03D23C35C002B0AD03D2502236355FD
:101C4000210001C9FFF7A8FF01236355002070BDE3
:101C50003C330022C254FFF7E2FEEEE70120F6E734
:101C60007047704770B582B004000368DB072BD55E
:101C7000B34B5A680C231340042B1DD0B04B5A6849
:101C80000C231340082B0ED06368012B41D0002B8E
:101C900056D1AB4B1A68AB490A401A601A68AA4978
:101CA0000A401A603BE0A64B5B68C0225202134018
:101CB000802252029342E7D1A14B1B689B0303D5BC
:101CC0006368002B00D136E223689B0777D59C4BD5
:101CD0005B680C221A4262D0994B5A680C2313405D
:101CE000082B53D0E368002B00D18AE0944A136894
:101CF00001210B43136000F02DFC0500904B1B6885
:101D00009B0775D400F026FC401B0228F6D903205F
:101D100018E28B4A116880235B020B4313606368EF
:101D2000002B25D000F016FC0500854B1B689B039B
:101D3000CAD400F00FFC401B6428F6D9032001E24E
:101D4000052B09D07E4B1A687E490A401A601A6832
:101D50007D490A401A60E2E7794B19688022D20275
:101D60000A431A601968802252020A431A60D6E7B1
:101D700000F0F0FB0500724B1B689B03A4D500F03C
:101D8000E9FB401B6428F6D90320DBE16C4B5B6860
:101D9000C02252021340802212029342A2D1684B09
:101DA0001B689B0703D5E368012B00D0C5E164499C
:101DB0000B68F82293432269D20013430B60236817
:101DC0001B0744D5E369002B2ED05D4A536A0121DD
:101DD0000B43536200F0BEFB0500594B5B6A9B0747
:101DE00035D400F0B7FB401B0228F6D90320A9E147
:101DF00053490B68F82293432269D20013430B60C6
:101E0000DDE74F4A136801218B43136000F0A2FB0A
:101E100005004B4B1B689B07D1D500F09BFB401B7B
:101E20000228F6D903208DE1454A536A01218B43EC
:101E3000536200F08FFB0500414B5B6A9B0706D5A0
:101E400000F088FB401B0228F6D903207AE12368C2
:101E50005B0700D480E03A4BDB69DB000BD4384AE7
:101E6000D169802040050143D161D36903400193CA
:101E7000019B012500E00025344B1B68DB050ED5D6
:101E8000A368012B1FD0002B34D12D4B1A6A0121DE
:101E90008A431A621A6A03318A431A6218E02B4A8B
:101EA000116880235B000B43136000F053FB0600B6
:101EB000264B1B68DB05E3D400F04CFB801B642839
:101EC000F6D903203EE11E4A136A01210B43136237
:101ED000A368002B24D000F03DFB0600184B1B6AC2
:101EE0009B0737D400F036FB801B194B9842F5D97D
:101EF000032027E1052B09D0114B1A6A01218A43DF
:101F00001A621A6A03318A431A62E1E70C4B1A6AB1
:101F100004210A431A621A6A03390A431A62D7E78C
:101F200000F018FB0600064B1B6A9B0712D500F059
:101F300011FB801B064B9842F5D9032002E1C046F5
:101F400000100240FFFFFEFFFFFFFBFF007000409C
:101F500088130000012D39D02368DB0610D5636992
:101F6000012B39D0053357D1784A536B04218B4369
:101F70005363536BF4318B43A169C9000B43536323
:101F800023689B066DD5714B5A680C2313400C2BAC
:101F900060D06E4B5A680C231340082B53D0236A31
:101FA000002B7CD0694A516B80235B020B43536347
:101FB00000F0D0FA0500654B5B6BDB0351D400F0F9
:101FC000C9FA401B0228F6D90320BBE05F4AD36957
:101FD0005F490B40D361BFE75C4B5A6B04210A4356
:101FE0005A635A6B03390A435A6300F0B3FA050087
:101FF000564B5B6B9B0706D400F0ACFA401B0228E3
:10200000F6D903209EE051494B6BF8229343A26915
:10201000D20013434B63B3E74C4B5A6B04210A4382
:102020005A635A6B03398A435A6300F093FA0500E6
:10203000464B5B6B9B07A3D500F08CFA401B022834
:10204000F6D903207EE0414B5B68C0225202134068
:102050009342A4D13D4B5B6BDB0302D5236A012B7A
:102060006DD1636A002B6CD0384A51680C220A404B
:10207000082A69D0022B25D0344A136835490B4011
:10208000136000F067FA0400304B1B689B0150D5C9
:1020900000F060FA001B0228F6D9032052E02B4A18
:1020A000536B2D490B40536300F054FA0500274B46
:1020B0005B6BDB03D5D500F04DFA401B0228F6D947
:1020C00003203FE0214A136822490B40136000F0CF
:1020D00041FA05001D4B1B689B0106D500F03AFA3A
:1020E000401B0228F6D903202CE0184BDA6A0F2196
:1020F0008A43216B0A43DA625A6818490A40E16A46
:10210000A06A01430A435A601968802252040A43B4
:102110001A6000F01FFA04000C4B1B689B0106D4E8
:1021200000F018FA001B0228F6D903200AE000206C
:1021300008E0002006E0012004E0012002E0012088
:1021400000E0002002B070BD0120FBE7001002405B
:10215000FFFFFFEFFFFFFFFEFFFFFEFFFF7FC2FF5E
:1021600010B588B004AA1E4B13CB13C21B681360B2
:102170006A461C4B13CB13C21B6813601A4B5A6878
:102180000C231340082B04D00C2B26D1174808B081
:1021900010BD910C0F23194004A8445C1249C96A70
:1021A0000B406946C95CC0235B021A4080235B0276
:1021B0009A4208D0C0235B029A4209D00C48FDF72E
:1021C0007FFF6043E3E70A48FDF77AFF6043DEE7FD
:1021D0000648FDF775FF6043D9E70548D7E7C046D5
:1021E000043500081835000800100240006CDC02BD
:1021F00000127A0070B504000D005A4B1A680123D2
:1022000013408B420AD257490B68012293432B4358
:102210000B600B681A40AA4200D09CE023689B0721
:1022200006D5514A5368F0218B43A1680B43536094
:102230002368DB0764D56368012B09D0022B29D002
:10224000032B2DD0484A1268920706D4012081E062
:10225000454A1268920300D47FE043494A6803204C
:10226000824313434B6000F075F906006368012B4D
:102270001CD0022B28D0032B34D03B4B5B680C22A4
:102280001A423DD000F066F9801B384B9842F4D9D1
:1022900003205FE0344A12689201DED4012059E045
:1022A000314A526BD203D8D4012053E02E4B5A68E6
:1022B0000C231340042B23D000F04CF9801B2B4A35
:1022C0009042F3D9032045E0274B5A680C23134072
:1022D000082B15D000F03EF9801B244B9842F3D90F
:1022E000032037E0204B5A680C2313400C2B07D0F7
:1022F00000F030F9801B1D4B9842F3D9032029E0F0
:10230000184B1A6801231340AB4209D915490B68D1
:10231000012293432B430B600B681A40AA421ED143
:1023200023685B0706D5104A536811490B40E168E2
:102330000B435360FFF714FF0B4B5A6812090F232E
:1023400013400C4AD35CD8400B4B18600020FEF7BA
:102350003FFA002070BD0120FCE70120FAE70120D0
:10236000F8E7C04600200240001002408813000039
:10237000FFF8FFFF2C35000850000020014B1868C3
:102380007047C0465000002010B5FFF7F7FF044B20
:102390005A68120A07231340024AD35CD84010BD82
:1023A000001002403C35000810B5072303600A4BBB
:1023B0005C680322224042605C68F0222240826016
:1023C0005B68E022D2001340C360044B1A6801230B
:1023D00013400B6010BDC0460010024000200240B8
:1023E00070B582B004000368DB0337D5474BDB6967
:1023F000DB005DD4454AD169802040050143D161AD
:10240000D36903400193019B0125414B1B68DB0508
:1024100050D53E4B1A6AC0239B00110019401A4246
:1024200013D0626813408B420FD0384B186A394A78
:1024300002401E6A8021490231431962196A364EF0
:10244000314019621A62C30748D4304A136A3149CD
:102450000B4061680B431362012D4ED02368DB07EC
:1024600006D52A4A136B03218B43A1680B431363E0
:1024700023689B0606D5254A136B10218B43E16820
:102480000B43136323689B0306D5204A136B8021FB
:102490008B4361690B43136323685B0532D51B4A89
:1024A000136B40218B4321690B43136300202AE007
:1024B0000025AAE7164A116880235B000B431360CE
:1024C00000F048F80600124B1B68DB05A1D400F0B1
:1024D00041F8801B6428F6D9032014E000F03AF894
:1024E00006000A4B1B6A9B07AFD400F033F8801B31
:1024F0000A4B9842F5D9032005E0D36908490B40FF
:10250000D361ABE7002002B070BDC04600100240AE
:1025100000700040FFFCFFFFFFFFFEFF881300007C
:10252000FFFFFFEF10B5064A136810210B4313603D
:102530000020FEF74DF9FEF72DF9002010BDC04632
:1025400000200240024A1368013313607047C046FE
:102550003C080020014B18687047C0463C0800202A
:1025600030B583B00190FFF7F5FF0500019C631CB7
:1025700000D00134FFF7EEFF401BA042FAD303B0B6
:1025800030BD0000F0B5D6464F464646C0B582B0D5
:10259000002371E084683C40A446CC68B4406546A2
:1025A0002C4384604468944322004C682409A44668
:1025B000012465462C409C4014434460C268174087
:1025C0008A68B2403A43C2604A68D20053D5504C40
:1025D000A66901221643A661A46922400192019ACC
:1025E0009A08941CA4004B4EA75903241C40A40035
:1025F0000F26A640B7439026F605B0427ED0464E41
:10260000B0427DD0454EB04276D00526A64034007B
:102610003C43023292003F4E9451414A14684A466C
:10262000D24326004D46AE434D68ED0302D54D46DC
:102630002C4326003A4C26606468260016404D68FC
:10264000AD0302D54D462C432600354C6660A46888
:10265000260016404D68ED0202D54D462C4326005B
:102660002F4CA660E46822404D68AD0201D54A4671
:1026700022432B4CE26001330C682200DA4041D047
:1026800001229A4025001540A9461442F3D04C6817
:10269000022C01D0122C0ED1DC080834A4002758DB
:1026A00007261E40B6000F25B540AF430D69B54063
:1026B0002E003E4326500468A4465E000324A24632
:1026C0002700B740B846FF4365464446A543AC469D
:1026D0004C68554625402C00B44065462C430460A8
:1026E0004C68651E012D00D854E7112C00D151E72C
:1026F000122C00D062E74DE7022687E7002685E727
:10270000012683E702B01CBC90469946A246F0BD64
:10271000001002400000014000040048000800488A
:1027200000040140002A01D0816170478162FCE70A
:1027300070B5002811DB8308134DC0339B005C5932
:1027400003221040C000FC3216008640B4438901C9
:102750000A40824022435A5170BD0F230340083B78
:102760009B0806339B00094A944663445D68032432
:102770002040C000FF2214008440A54389010A4084
:1027800082402A435A60E7E700E100E000ED00E004
:102790001F2318401E3B8340014A13607047C04608
:1027A00000E100E0114B1A6801210A431A605A68DF
:1027B0000F4802405A601A680E4802401A601A68B0
:1027C0000D4802401A605A680C4802405A60DA6AA2
:1027D0000F208243DA621A6B094802401A635A6B6F
:1027E0008A435A6300229A607047C0460010024034
:1027F0000CB8FF08FFFFF6FEFFFFFBFFFFFFC0FF67
:102800002CFEFFFF10B5002816D085239B00C3586F
:10281000002B03D085239B000024C450002902D044
:1028200084239B00C150FE235B000121C154027030
:10283000FDF764FE002010BD0220FCE7002904D053
:1028400085239B00C150002070470220FCE710B593
:10285000FDF78AFE002010BD10B585239B00C358EC
:10286000002B06D01B689847002800D110BD02201D
:10287000FCE70220FAE710B585239B00C3585B688C
:102880009847002010BD000070B5040082239B0013
:10289000C518280000F02FF9FA235B000122E2504E
:1028A000124BE25A163BE2501033E15CEA3BFF3B2D
:1028B0000B40012B0FD0022B12D0002B05D07F2311
:1028C00099432000FDF76EFE03E02900200000F090
:1028D000B5FA002070BD2900200000F0D3FAF8E717
:1028E0002900200000F0ECFAF3E7C0460E020000D9
:1028F00010B50400130000292AD1FA225200825890
:10290000032A01D0002010BD421DFF329168D26819
:1029100091420ED885239B00C3581B69002B04D01D
:10292000FE225200825C032A10D0200000F0A3FB9C
:10293000E8E7891A0530FF3081608A4200D90A0031
:1029400092B21900200000F08EFBDBE79847ECE71D
:1029500085239B00C3589B69002BD3D0FE225200D5
:10296000825C032ACED19847CCE770B504001300EF
:1029700000294FD1FA2252008258022A06D0802321
:102980009B00E35C012B40D0002070BDC269056A4A
:10299000AA421CD8866929003000FDF7CDFB00292A
:1029A00006D1B54204D8FC235B00E3589E421BD3FA
:1029B00085239B00E358DB68002B04D0FE225200E5
:1029C000A25C032A1ED0200000F061FBD7E7521B57
:1029D000C26192B2190000F03EFB002300220021E8
:1029E0002000FDF71CFECAE70022200000F033FBA8
:1029F000FC235B000022E250002300212000FDF7B1
:102A00000EFEBCE720009847DDE780239B000022F4
:102A1000E254B9E785239B00C3585B69002BB3D010
:102A2000FE225200825C032AAED19847ACE770B513
:102A30000400402300220021FDF79FFD402588234C
:102A40005B00E550D03B002280212000FDF795FD82
:102A50002562FE235B000122E2541C33E358002B65
:102A600006D085239B00E3585B68217920009847B6
:102A7000002070BD017400207047FE235B00C15C24
:102A8000FE22FF328154FA3AFF3AC25400207047C6
:102A9000FE23FF33C25C013BC2540020704710B5D7
:102AA000FE235B00C35C032B01D0002010BD8523F7
:102AB0009B00C358DB69002BF7D09847F5E703006C
:102AC00000201A78002A03D00130C0B20133F8E7A1
:102AD000704710B504004B88012B00D010BD812336
:102AE0009B000122C2501033C3589B6898472000B6
:102AF00000F0C1FAF2E70B7803704B7843708B78E3
:102B0000CA7812029B1843800B794A7912029B18EB
:102B100083808B79CA7912029B18C380704710B5E5
:102B200004008021FDF73EFD00212000FDF73AFD65
:102B300010BD000030B583B004000D004A88130AB0
:102B4000072B00D98EE09B004F49CB589F4684232A
:102B50009B00C3581B68007C6A46911D98476B46D2
:102B600006331B88002B03D0EA88002A00D07EE0C1
:102B700003B030BD037C002B09D185239B00C358D3
:102B80009B6A6A46901D984702234370E7E78523B6
:102B90009B00C358DB6A6A46901D98470223437026
:102BA000DDE7D2B2052A39D89200384B9B589F46B0
:102BB00084239B00C3585B68007C6A46911D98473C
:102BC000CDE784239B00C3589B68007C6A46911D17
:102BD0009847C4E784239B00C358DB68007C6A469F
:102BE000911D9847BBE784239B00C3581B69007C59
:102BF0006A46911D9847B2E784239B00C3585B69DE
:102C0000007C6A46911D9847A9E784239B00C3581E
:102C10009B69007C6A46911D9847A0E72900FFF751
:102C20007EFFA5E7037C002B07D185239B00C358BB
:102C30005B6B6A46901D984791E72900FFF76FFF8D
:102C400096E7037C002B09D185239B00C3581B6B9F
:102C50006A46901D98470723437080E72900FFF7D5
:102C60005EFF85E729002000FFF759FF80E7191C68
:102C7000934200D9111C8AB26B46D9800100200012
:102C800000F0DBF974E7C0464435000864350008FD
:102C900070B504008B88002B22D1CB88002B1FD16C
:102CA0008B787F251D40FE235B00C35C032B0FD078
:102CB000FF235B00C5542900FDF79FFC200000F0B6
:102CC000DAF9002D07D0FE235B000222E2540AE06D
:102CD000FFF725FF07E0FE235B000122E25402E03C
:102CE0002000FFF71CFF70BD70B504000D0089784F
:102CF000284B197001290AD8FE235B00C35C022B04
:102D000009D0032B1ED02900FFF709FF02E029009C
:102D1000FFF705FF70BD002911D04160FE235B0065
:102D20000322C254FFF798FD022803D0200000F0D0
:102D3000A2F9EFE729002000FFF7F1FEEAE700F033
:102D40009AF9E7E7002911D0436899421ED0D9B219
:102D5000FFF791FD0F4B197861602000FFF77CFDB4
:102D600002280ED0200000F086F9D3E7FE235B0096
:102D70000222C2544160FFF77EFD200000F07BF983
:102D8000C8E729002000FFF7CAFEC3E700F073F987
:102D9000C0E7C046A801002010B5CB88012B09D19F
:102DA000FE235B00C35C022B07D0032B0DD0FFF783
:102DB000B6FE01E0FFF7B3FE10BD00238360010003
:102DC0000831012200F039F9F6E7011D012200F077
:102DD00034F9F1E710B5FE235B00C35C023B012B25
:102DE0000ED80123C36081239B00C358002B01D060
:102DF0000323C36001000C31022200F01EF910BD54
:102E0000FFF78DFEFBE710B50400FE235B00C35CFB
:102E1000023B012B0ED84B88012B0DD181239B0047
:102E20000022C2501033C3589B689847200000F01E
:102E300022F901E0FFF773FE10BD000010B54B78DA
:102E4000092B19D89B000E4AD3589F46FFF772FEF4
:102E5000002010BDFFF71CFFFAE7FFF745FFF7E77B
:102E6000FFF79AFFF4E7FFF7B5FFF1E7FFF731FE51
:102E7000EEE7FFF7C8FFEBE7FFF751FEE8E7C046D4
:102E80007C35000870B504000D00FE235B00C35CB8
:102E9000032B11D10B79012B0BD885239B00C35831
:102EA0009B689847EB88002B08D1200000F0E3F8DE
:102EB00004E0FFF734FE01E0FFF731FE002070BDB3
:102EC00070B505000C0088880979227860231340CA
:102ED000202B08D06378012B37D0032B0BD0002B8D
:102EE0005BD0002070BDF533FF33EB589B682100A9
:102EF00028009847F5E7FE235B00EB5C022B06D029
:102F0000032B0CD021002800FFF709FEE9E7002978
:102F1000E7D08029E5D02800FDF744FBE1E763888E
:102F2000002B03D1002901D080290AD185239B00E1
:102F3000EB589B68210028009847280000F09BF878
:102F4000CFE72800FDF72EFBF0E7FE235B00EB5CEC
:102F5000022B06D0032B0CD021002800FFF7DFFD49
:102F6000BFE70029BDD08029BBD02800FDF71AFBA0
:102F7000B7E76388002BB4D14B0603D1280000F0DB
:102F80007AF8AEE72800FDF716FB85239B00EB5887
:102F90009B68210028009847F0E7FE235B00EB5C6C
:102FA000022B06D0032B0BD021002800FFF7B7FD22
:102FB00097E74B0600D194E72800FDF7F3FA90E776
:102FC000030612D47F240C40103424012C1904343D
:102FD0002800FDF7F9FA00280ED001232360022211
:102FE0002100280000F029F87BE77F240C40013401
:102FF00024012C190434EBE700232360EFE770B5BC
:1030000004000D001600002816D0FFF758FD431CE1
:103010005B009BB233802B7003236B70013B08E095
:1030200001345A1CD2B2E8540233DBB2AA18002190
:10303000117020780028F3D170BD10B51300FA226A
:103040005200022484508361C3610A000021FDF70D
:10305000DDFA002010BD10B513000A000021FDF7B5
:10306000D5FA002010BD10B513000A000021FDF7AD
:10307000D6FA002010BD10B5FA235B000422C2501E
:10308000002300220021FDF7C1FA002010BD10B579
:10309000FA235B000522C250002300220021FDF725
:1030A000BEFA002010BD00002223038000487047B4
:1030B000D800002086239B00C35800221A730020EA
:1030C000704700000A230380004870470801002071
:1030D00070B586239B00C5580B78602214001C40F5
:1030E0001A4224D0202C4DD14B780A2B10D009D86D
:1030F000022B12D0032B16D101222900FFF79DFFCE
:10310000002440E00B2B0ED18B782B6000243AE09A
:103110004B881B0A6B60002435E0291D0122FFF754
:103120008CFF00242FE0FFF7FAFC02242BE04B7801
:103130000A2B1ED00B2B22D0062B24D14B881B0A26
:10314000222B06D0212B0CD000210022FFF775FF87
:1031500019E0CB881A1C4A2B00D94A2292B20B499B
:10316000F4E7CB881A1C092B00D9092292B208492E
:10317000ECE7290008310122FFF75FFF03E08B78BD
:10318000AB6000E00024200070BDC0465400002069
:10319000FC00002010B504008121FDF7FAF9862318
:1031A0009B00E058002805D0FDF746FA86239B00D7
:1031B0000022E250002010BD10B5040004230322B9
:1031C0008121FDF7DAF91020FDF732FA86239B0002
:1031D000E050002803D000230373002010BD01201D
:1031E000FCE710B58624A40003591C3C045D032CA5
:1031F00001D0002010BD1C7B002CFAD101341C73BF
:1032000013000A008121FDF701FAF2E71348854611
:1032100013480168090E134A914205D11248134917
:10322000016013481349016013481449144A0023EC
:1032300002E0D458C4500433C4188C42F9D3114A64
:10324000114C002301E013600432A242FBD3FFF7CC
:10325000A9FA00F01DF8FDF75BF8FEE70018002062
:10326000040000001F0000001810024001000000D0
:103270000000014000000000000000207801002054
:10328000AC3500087801002044080020FEE700006B
:1032900070B500260C4D0D4C641BA410A64209D13C
:1032A000002600F001F90A4D0A4C641BA410A64246
:1032B00005D170BDB300EB5898470136EEE7B30077
:1032C000EB5898470136F2E7A4350008A43500080A
:1032D000A4350008A835000803001218934200D155
:1032E000704719700133F9E7124B10B51C68A36BD6
:1032F000002B0FD1182000F029F80F4BA0630360BA
:103300000E4B012243600E4B83600B23838100230D
:1033100002614361A46B0B4A206961690A4B00F0AA
:103320009FF8012200238018594120616161480003
:10333000400810BD140100200E33CDAB34126DE6F1
:10334000ECDE05002D7F954C2DF4515810B5034B44
:103350000100186800F004F810BDC04614010020F8
:10336000F8B50323CD1C9D43083506000C2D1FD254
:103370000C25A9421ED8300000F062F825490A68E1
:103380001400002C1AD1244F3B68002B04D12100DB
:10339000300000F043F838602900300000F03EF8BB
:1033A000431C2AD10C233000336000F04AF803E0BC
:1033B000002DDEDA0C2333600020F8BD23685B1B90
:1033C00018D40B2B03D92360E418256003E063684D
:1033D000A2420DD10B60300000F033F8200007222C
:1033E0000B30231D9043C21AE7D01B1AA350E4E709
:1033F0005360F0E722006468C3E70323C41C9C43C6
:10340000A042E2D0211A300000F008F8431CDCD1C1
:10341000C8E7C046AC010020B0010020002370B511
:10342000064C05000800236000F00CF8431C03D193
:103430002368002B00D02B6070BDC04640080020E0
:1034400070477047044A1368002B03D018181060A7
:1034500018007047014BF9E7B4010020480800202C
:10346000F7B50D0081B28C460600010C6046019351
:10347000634697B27843140C4F4361435C43030C9B
:103480009C46E4196444A74202D980235B02C91810
:10349000019B6A437343270C7F182404D91980B217
:1034A0002018891803B0F0BDF8B5C046F8BC08BCB8
:1034B0009E467047F8B5C046F8BC08BC9E467047AB
:1034C00053544D33322048756D616E20696E7465BA
:1034D0007266616365000000506C617374696320FB
:1034E00046726F670000000048494420436F6E66D3
:1034F0006967000048494420496E746572666163DB
:103500006500000002030405060708090A0B0C0DFC
:103510000E0F10100000000001020304050607084A
:10352000090A0B0C0D0E0F10000000000000000037
:103530000000000001020304060708090000000063
:1035400001020304642C00084E2B0008742B0008B1
:10355000A22B0008642C0008642C0008242C00080E
:10356000422C0008B02B0008C22B0008D42B000806
:10357000E62B0008F82B00080A2C0008662E00082D
:10358000722E0008782E00086C2E0008782E000895
:10359000542E00084C2E0008782E0008602E0008DB
:0435A0005A2E000897
:0435A40021020008F8
:0435A800F90100081D
:1035AC003D0600084906000801070008D906000876
:1035BC00C50600081D070008450700081201000297
:1035CC000000004083042B5700020102030100009D
:1035DC00040309041A0300000000000000000000AE
:1035EC0000000000000000000000000000000000CF
:1035FC0000127A0005010902A1010901A1000509C7
:10360C001901290315002501950375018102950106
:10361C007505810105010930093109381581257FAE
:10362C00750895038106C0093C05FF0901150025A5
:10363C000175019502B12275069501B101C000001A
:10364C00B931000895310008D130000800000000A5
:10365C0000000000B5300008000000000000000071
:10366C000000000000000000A9300008A93000088C
:10367C00A9300008C530000809022200010100E051
:10368C0032090400000103010200092111010001AB
:10369C00224A000705810304000A000009211101D8
:1036AC000001224A000000000A060002000000404F
:1036BC0001000000180100200000000000000000C4
:1036CC0000000000000000000000000000000000EE
:1036DC0000000000000000000000000000000000DE
:1036EC0000000000000000000000000000000000CE
:1036FC0000000000000000000000000000000000BE
:10370C0000000000000000000000000000000000AD
:08371C000000000000000000A5
:040000050800320DB0
:00000001FF
